{
  "_format": "hh-sol-artifact-1",
  "contractName": "ManabitGacha",
  "sourceName": "contracts/ManabitGacha.sol",
  "abi": [
    {
      "inputs": [
        {
          "internalType": "address",
          "name": "ManabitCoinContractAddress",
          "type": "address"
        }
      ],
      "stateMutability": "nonpayable",
      "type": "constructor"
    },
    {
      "anonymous": false,
      "inputs": [
        {
          "indexed": true,
          "internalType": "address",
          "name": "sender",
          "type": "address"
        },
        {
          "indexed": true,
          "internalType": "address",
          "name": "receiver",
          "type": "address"
        },
        {
          "indexed": false,
          "internalType": "uint256",
          "name": "amount",
          "type": "uint256"
        },
        {
          "indexed": false,
          "internalType": "string",
          "name": "comment",
          "type": "string"
        }
      ],
      "name": "Manabit",
      "type": "event"
    },
    {
      "inputs": [],
      "name": "ManabitCoin",
      "outputs": [
        {
          "internalType": "contract IERC20",
          "name": "",
          "type": "address"
        }
      ],
      "stateMutability": "view",
      "type": "function"
    },
    {
      "inputs": [
        {
          "internalType": "string",
          "name": "comment",
          "type": "string"
        },
        {
          "internalType": "address",
          "name": "to",
          "type": "address"
        },
        {
          "internalType": "uint256",
          "name": "amount",
          "type": "uint256"
        }
      ],
      "name": "sendManabitCoin",
      "outputs": [
        {
          "internalType": "bool",
          "name": "",
          "type": "bool"
        }
      ],
      "stateMutability": "nonpayable",
      "type": "function"
    }
  ],
  "bytecode": "0x608060405234801561001057600080fd5b50604051610cf6380380610cf6833981810160405281019061003291906100db565b806000806101000a81548173ffffffffffffffffffffffffffffffffffffffff021916908373ffffffffffffffffffffffffffffffffffffffff16021790555050610108565b600080fd5b600073ffffffffffffffffffffffffffffffffffffffff82169050919050565b60006100a88261007d565b9050919050565b6100b88161009d565b81146100c357600080fd5b50565b6000815190506100d5816100af565b92915050565b6000602082840312156100f1576100f0610078565b5b60006100ff848285016100c6565b91505092915050565b610bdf806101176000396000f3fe608060405234801561001057600080fd5b50600436106100365760003560e01c80635e2f02101461003b578063d728805914610059575b600080fd5b610043610089565b60405161005091906104e7565b60405180910390f35b610073600480360381019061006e91906106d0565b6100ad565b604051610080919061075a565b60405180910390f35b60008054906101000a900473ffffffffffffffffffffffffffffffffffffffff1681565b60008060008054906101000a900473ffffffffffffffffffffffffffffffffffffffff1673ffffffffffffffffffffffffffffffffffffffff1663dd62ed3e33306040518363ffffffff1660e01b815260040161010b929190610784565b60206040518083038186803b15801561012357600080fd5b505afa158015610137573d6000803e3d6000fd5b505050506040513d601f19601f8201168201806040525081019061015b91906107c2565b905060008060009054906101000a900473ffffffffffffffffffffffffffffffffffffffff1673ffffffffffffffffffffffffffffffffffffffff166370a08231336040518263ffffffff1660e01b81526004016101b991906107ef565b60206040518083038186803b1580156101d157600080fd5b505afa1580156101e5573d6000803e3d6000fd5b505050506040513d601f19601f8201168201806040525081019061020991906107c2565b9050600073ffffffffffffffffffffffffffffffffffffffff168573ffffffffffffffffffffffffffffffffffffffff16141561027b576040517f08c379a00000000000000000000000000000000000000000000000000000000081526004016102729061088d565b60405180910390fd5b600084116102be576040517f08c379a00000000000000000000000000000000000000000000000000000000081526004016102b59061091f565b60405180910390fd5b83811015610301576040517f08c379a00000000000000000000000000000000000000000000000000000000081526004016102f8906109b1565b60405180910390fd5b83821015610344576040517f08c379a000000000000000000000000000000000000000000000000000000000815260040161033b90610a43565b60405180910390fd5b60008054906101000a900473ffffffffffffffffffffffffffffffffffffffff1673ffffffffffffffffffffffffffffffffffffffff166323b872dd3387876040518463ffffffff1660e01b81526004016103a193929190610a72565b602060405180830381600087803b1580156103bb57600080fd5b505af11580156103cf573d6000803e3d6000fd5b505050506040513d601f19601f820116820180604052508101906103f39190610ad5565b508473ffffffffffffffffffffffffffffffffffffffff163373ffffffffffffffffffffffffffffffffffffffff167f4c6b00566d85d78a625210b43274920505b31b095a4b7a57d1c173e81cf55d4a8689604051610453929190610b79565b60405180910390a36001925050509392505050565b600073ffffffffffffffffffffffffffffffffffffffff82169050919050565b6000819050919050565b60006104ad6104a86104a384610468565b610488565b610468565b9050919050565b60006104bf82610492565b9050919050565b60006104d1826104b4565b9050919050565b6104e1816104c6565b82525050565b60006020820190506104fc60008301846104d8565b92915050565b6000604051905090565b600080fd5b600080fd5b600080fd5b600080fd5b6000601f19601f8301169050919050565b7f4e487b7100000000000000000000000000000000000000000000000000000000600052604160045260246000fd5b61056982610520565b810181811067ffffffffffffffff8211171561058857610587610531565b5b80604052505050565b600061059b610502565b90506105a78282610560565b919050565b600067ffffffffffffffff8211156105c7576105c6610531565b5b6105d082610520565b9050602081019050919050565b82818337600083830152505050565b60006105ff6105fa846105ac565b610591565b90508281526020810184848401111561061b5761061a61051b565b5b6106268482856105dd565b509392505050565b600082601f83011261064357610642610516565b5b81356106538482602086016105ec565b91505092915050565b600061066782610468565b9050919050565b6106778161065c565b811461068257600080fd5b50565b6000813590506106948161066e565b92915050565b6000819050919050565b6106ad8161069a565b81146106b857600080fd5b50565b6000813590506106ca816106a4565b92915050565b6000806000606084860312156106e9576106e861050c565b5b600084013567ffffffffffffffff81111561070757610706610511565b5b6107138682870161062e565b935050602061072486828701610685565b9250506040610735868287016106bb565b9150509250925092565b60008115159050919050565b6107548161073f565b82525050565b600060208201905061076f600083018461074b565b92915050565b61077e8161065c565b82525050565b60006040820190506107996000830185610775565b6107a66020830184610775565b9392505050565b6000815190506107bc816106a4565b92915050565b6000602082840312156107d8576107d761050c565b5b60006107e6848285016107ad565b91505092915050565b60006020820190506108046000830184610775565b92915050565b600082825260208201905092915050565b7f4d616e6162697447616368613a2073656e6420746f207a65726f20616464726560008201527f7373000000000000000000000000000000000000000000000000000000000000602082015250565b600061087760228361080a565b91506108828261081b565b604082019050919050565b600060208201905081810360008301526108a68161086a565b9050919050565b7f4d616e6162697447616368613a20416d6f756e74206d7573742062652067726560008201527f61746572207468616e2030000000000000000000000000000000000000000000602082015250565b6000610909602b8361080a565b9150610914826108ad565b604082019050919050565b60006020820190508181036000830152610938816108fc565b9050919050565b7f4d616e6162697447616368613a205472616e7366657220616d6f756e7420657860008201527f6365656473204d4e42432062616c616e63650000000000000000000000000000602082015250565b600061099b60328361080a565b91506109a68261093f565b604082019050919050565b600060208201905081810360008301526109ca8161098e565b9050919050565b7f4d616e6162697447616368613a20496e73756666696369656e74204d4e42432060008201527f616c6c6f77616e63650000000000000000000000000000000000000000000000602082015250565b6000610a2d60298361080a565b9150610a38826109d1565b604082019050919050565b60006020820190508181036000830152610a5c81610a20565b9050919050565b610a6c8161069a565b82525050565b6000606082019050610a876000830186610775565b610a946020830185610775565b610aa16040830184610a63565b949350505050565b610ab28161073f565b8114610abd57600080fd5b50565b600081519050610acf81610aa9565b92915050565b600060208284031215610aeb57610aea61050c565b5b6000610af984828501610ac0565b91505092915050565b600081519050919050565b60005b83811015610b2b578082015181840152602081019050610b10565b83811115610b3a576000848401525b50505050565b6000610b4b82610b02565b610b55818561080a565b9350610b65818560208601610b0d565b610b6e81610520565b840191505092915050565b6000604082019050610b8e6000830185610a63565b8181036020830152610ba08184610b40565b9050939250505056fea2646970667358221220b77d446f2ac49cfa5ea667167b87e450f3e517798a74c2e8ede24c89c6e3a71264736f6c63430008090033",
  "linkReferences": {},
  "deployedLinkReferences": {}
}